{
  "address": "0x23a91A72dEd465a85568Fbf132D6d9dD4976777F",
  "abi": [
    {
      "inputs": [
        {
          "internalType": "contract IERC20",
          "name": "_usdtToken",
          "type": "address"
        },
        {
          "internalType": "uint256",
          "name": "_conversionRate",
          "type": "uint256"
        },
        {
          "internalType": "contract ICompliancePropertyManager",
          "name": "_propertyManager",
          "type": "address"
        },
        {
          "internalType": "bytes32",
          "name": "_ruleKey",
          "type": "bytes32"
        }
      ],
      "stateMutability": "nonpayable",
      "type": "constructor"
    },
    {
      "anonymous": false,
      "inputs": [
        {
          "indexed": true,
          "internalType": "address",
          "name": "previousOwner",
          "type": "address"
        },
        {
          "indexed": true,
          "internalType": "address",
          "name": "newOwner",
          "type": "address"
        }
      ],
      "name": "OwnershipTransferred",
      "type": "event"
    },
    {
      "anonymous": false,
      "inputs": [
        {
          "indexed": true,
          "internalType": "address",
          "name": "user",
          "type": "address"
        },
        {
          "indexed": false,
          "internalType": "uint256",
          "name": "nativeAmount",
          "type": "uint256"
        },
        {
          "indexed": false,
          "internalType": "uint256",
          "name": "usdtAmount",
          "type": "uint256"
        }
      ],
      "name": "SwapNativeForUSDT",
      "type": "event"
    },
    {
      "anonymous": false,
      "inputs": [
        {
          "indexed": true,
          "internalType": "address",
          "name": "user",
          "type": "address"
        },
        {
          "indexed": false,
          "internalType": "uint256",
          "name": "usdtAmount",
          "type": "uint256"
        },
        {
          "indexed": false,
          "internalType": "uint256",
          "name": "nativeAmount",
          "type": "uint256"
        }
      ],
      "name": "SwapUSDTForNative",
      "type": "event"
    },
    {
      "inputs": [],
      "name": "conversionRate",
      "outputs": [
        {
          "internalType": "uint256",
          "name": "",
          "type": "uint256"
        }
      ],
      "stateMutability": "view",
      "type": "function"
    },
    {
      "inputs": [],
      "name": "owner",
      "outputs": [
        {
          "internalType": "address",
          "name": "",
          "type": "address"
        }
      ],
      "stateMutability": "view",
      "type": "function"
    },
    {
      "inputs": [],
      "name": "propertyManager",
      "outputs": [
        {
          "internalType": "contract ICompliancePropertyManager",
          "name": "",
          "type": "address"
        }
      ],
      "stateMutability": "view",
      "type": "function"
    },
    {
      "inputs": [],
      "name": "renounceOwnership",
      "outputs": [],
      "stateMutability": "nonpayable",
      "type": "function"
    },
    {
      "inputs": [],
      "name": "ruleKey",
      "outputs": [
        {
          "internalType": "bytes32",
          "name": "",
          "type": "bytes32"
        }
      ],
      "stateMutability": "view",
      "type": "function"
    },
    {
      "inputs": [
        {
          "internalType": "contract ICompliancePropertyManager",
          "name": "_propertyManager",
          "type": "address"
        }
      ],
      "name": "setPropertyManager",
      "outputs": [],
      "stateMutability": "nonpayable",
      "type": "function"
    },
    {
      "inputs": [
        {
          "internalType": "uint256",
          "name": "mid",
          "type": "uint256"
        }
      ],
      "name": "swapNativeForUSDT",
      "outputs": [],
      "stateMutability": "payable",
      "type": "function"
    },
    {
      "inputs": [
        {
          "internalType": "uint256",
          "name": "usdtAmount",
          "type": "uint256"
        },
        {
          "internalType": "uint256",
          "name": "mid",
          "type": "uint256"
        }
      ],
      "name": "swapUSDTForNative",
      "outputs": [],
      "stateMutability": "nonpayable",
      "type": "function"
    },
    {
      "inputs": [
        {
          "internalType": "address",
          "name": "newOwner",
          "type": "address"
        }
      ],
      "name": "transferOwnership",
      "outputs": [],
      "stateMutability": "nonpayable",
      "type": "function"
    },
    {
      "inputs": [],
      "name": "usdtToken",
      "outputs": [
        {
          "internalType": "contract IERC20",
          "name": "",
          "type": "address"
        }
      ],
      "stateMutability": "view",
      "type": "function"
    },
    {
      "inputs": [],
      "name": "withdrawAccidentalNativeTokens",
      "outputs": [],
      "stateMutability": "nonpayable",
      "type": "function"
    },
    {
      "inputs": [
        {
          "internalType": "contract IERC20",
          "name": "_token",
          "type": "address"
        }
      ],
      "name": "withdrawAccidentalTokens",
      "outputs": [],
      "stateMutability": "nonpayable",
      "type": "function"
    },
    {
      "stateMutability": "payable",
      "type": "receive"
    }
  ],
  "transactionHash": "0xe0b70b8fc5982960fdb9498df8b4044c962f6a050fc9104e9d0228812047404a",
  "args": [
    "0x12A54c8b4FF9a480088c387Bb4496A963323b672",
    1,
    "0x5EdAa7487770Da9174C69AF50d87dd36De7c5e13",
    "0x89be9d8e1c173097b1fcddf6a328cc1d821d51243e45e26960ff28b29cee622f"
  ],
  "numDeployments": 8,
  "solcInputHash": "f67cf27c55ba70c1c6927b782b8852c2",
  "bytecode": "0x608060405234801561001057600080fd5b50604051610dcf380380610dcf83398101604081905261002f916100db565b61003833610073565b600180546001600160a01b03199081166001600160a01b03968716179091556002939093556003805490931691909316179055600455610124565b600080546001600160a01b038381166001600160a01b0319831681178455604051919092169283917f8be0079c531659141344cd1fd0a4f28419497f9722a3daafe3b4186f6b6457e09190a35050565b6001600160a01b03811681146100d857600080fd5b50565b600080600080608085870312156100f157600080fd5b84516100fc816100c3565b602086015160408701519195509350610114816100c3565b6060959095015193969295505050565b610c9c806101336000396000f3fe6080604052600436106100cb5760003560e01c80637ffdf53e11610074578063b8364d931161004e578063b8364d93146101e7578063e7356cb514610207578063f2fde38b1461022757600080fd5b80637ffdf53e1461017f5780638da5cb5b14610195578063a98ad46c146101c757600080fd5b80631e507393116100a55780631e5073931461013757806327a10f0c14610157578063715018a61461016a57600080fd5b806309d5851b146100d75780631557ea9e146100ee578063197e49701461010e57600080fd5b366100d257005b600080fd5b3480156100e357600080fd5b506100ec610247565b005b3480156100fa57600080fd5b506100ec610109366004610b18565b6102f2565b34801561011a57600080fd5b5061012460045481565b6040519081526020015b60405180910390f35b34801561014357600080fd5b506100ec610152366004610b4f565b6105ec565b6100ec610165366004610b73565b61062e565b34801561017657600080fd5b506100ec610836565b34801561018b57600080fd5b5061012460025481565b3480156101a157600080fd5b506000546001600160a01b03165b6040516001600160a01b03909116815260200161012e565b3480156101d357600080fd5b506001546101af906001600160a01b031681565b3480156101f357600080fd5b506100ec610202366004610b4f565b61084a565b34801561021357600080fd5b506003546101af906001600160a01b031681565b34801561023357600080fd5b506100ec610242366004610b4f565b6109c6565b61024f610a56565b6040514790600090339083908381818185875af1925050503d8060008114610293576040519150601f19603f3d011682016040523d82523d6000602084013e610298565b606091505b50509050806102ee5760405162461bcd60e51b815260206004820152601c60248201527f4e617469766520746f6b656e207472616e73666572206661696c65640000000060448201526064015b60405180910390fd5b5050565b600354600480546040517f3438cdab00000000000000000000000000000000000000000000000000000000815291820184905260248201526001600160a01b0390911690633438cdab90604401602060405180830381865afa15801561035c573d6000803e3d6000fd5b505050506040513d601f19601f820116820180604052508101906103809190610b8c565b6103cc5760405162461bcd60e51b815260206004820152601860248201527f52756c6520766572696669636174696f6e206661696c6564000000000000000060448201526064016102e5565b6000821161041c5760405162461bcd60e51b815260206004820152601d60248201527f416d6f756e74206d7573742062652067726561746572207468616e203000000060448201526064016102e5565b60006002548361042c9190610bae565b90506000811161047e5760405162461bcd60e51b815260206004820152601e60248201527f4e6f7420656e6f756768205553445420666f7220636f6e76657273696f6e000060448201526064016102e5565b6001546040517f23b872dd000000000000000000000000000000000000000000000000000000008152336004820152306024820152604481018590526001600160a01b03909116906323b872dd906064016020604051808303816000875af11580156104ee573d6000803e3d6000fd5b505050506040513d601f19601f820116820180604052508101906105129190610b8c565b50604051600090339083908381818185875af1925050503d8060008114610555576040519150601f19603f3d011682016040523d82523d6000602084013e61055a565b606091505b50509050806105ab5760405162461bcd60e51b815260206004820152601c60248201527f4e617469766520746f6b656e207472616e73666572206661696c65640000000060448201526064016102e5565b604080518581526020810184905233917f551ca64b17859c7007eb19d200de4c4de8277c8efe17065d37d748fb4688d6be910160405180910390a250505050565b6105f4610a56565b600380547fffffffffffffffffffffffff0000000000000000000000000000000000000000166001600160a01b0392909216919091179055565b600354600480546040517f3438cdab00000000000000000000000000000000000000000000000000000000815291820184905260248201526001600160a01b0390911690633438cdab90604401602060405180830381865afa158015610698573d6000803e3d6000fd5b505050506040513d601f19601f820116820180604052508101906106bc9190610b8c565b6107085760405162461bcd60e51b815260206004820152601860248201527f52756c6520766572696669636174696f6e206661696c6564000000000000000060448201526064016102e5565b34806107565760405162461bcd60e51b815260206004820152601d60248201527f416d6f756e74206d7573742062652067726561746572207468616e203000000060448201526064016102e5565b6000600254826107669190610be9565b6001546040517fa9059cbb000000000000000000000000000000000000000000000000000000008152336004820152602481018390529192506001600160a01b03169063a9059cbb906044016020604051808303816000875af11580156107d1573d6000803e3d6000fd5b505050506040513d601f19601f820116820180604052508101906107f59190610b8c565b50604080518381526020810183905233917fecf0855b683e21631fcb7ef26b46667b13613435fccec20948a7645a0a62b3bb910160405180910390a2505050565b61083e610a56565b6108486000610ab0565b565b610852610a56565b6001546001600160a01b03828116911614156108b05760405162461bcd60e51b815260206004820152601460248201527f43616e6e6f74207769746864726177205553445400000000000000000000000060448201526064016102e5565b6040517f70a082310000000000000000000000000000000000000000000000000000000081523060048201526000906001600160a01b038316906370a0823190602401602060405180830381865afa158015610910573d6000803e3d6000fd5b505050506040513d601f19601f820116820180604052508101906109349190610c4d565b6040517fa9059cbb000000000000000000000000000000000000000000000000000000008152336004820152602481018290529091506001600160a01b0383169063a9059cbb906044016020604051808303816000875af115801561099d573d6000803e3d6000fd5b505050506040513d601f19601f820116820180604052508101906109c19190610b8c565b505050565b6109ce610a56565b6001600160a01b038116610a4a5760405162461bcd60e51b815260206004820152602660248201527f4f776e61626c653a206e6577206f776e657220697320746865207a65726f206160448201527f646472657373000000000000000000000000000000000000000000000000000060648201526084016102e5565b610a5381610ab0565b50565b6000546001600160a01b031633146108485760405162461bcd60e51b815260206004820181905260248201527f4f776e61626c653a2063616c6c6572206973206e6f7420746865206f776e657260448201526064016102e5565b600080546001600160a01b038381167fffffffffffffffffffffffff0000000000000000000000000000000000000000831681178455604051919092169283917f8be0079c531659141344cd1fd0a4f28419497f9722a3daafe3b4186f6b6457e09190a35050565b60008060408385031215610b2b57600080fd5b50508035926020909101359150565b6001600160a01b0381168114610a5357600080fd5b600060208284031215610b6157600080fd5b8135610b6c81610b3a565b9392505050565b600060208284031215610b8557600080fd5b5035919050565b600060208284031215610b9e57600080fd5b81518015158114610b6c57600080fd5b600082610be4577f4e487b7100000000000000000000000000000000000000000000000000000000600052601260045260246000fd5b500490565b6000817fffffffffffffffffffffffffffffffffffffffffffffffffffffffffffffffff0483118215151615610c48577f4e487b7100000000000000000000000000000000000000000000000000000000600052601160045260246000fd5b500290565b600060208284031215610c5f57600080fd5b505191905056fea26469706673582212200c55c1cf571b2a8b76a526cbb1346a502e9f8ca337bc333609d608ebbebc3f0064736f6c634300080a0033",
  "devdoc": {
    "kind": "dev",
    "methods": {
      "owner()": {
        "details": "Returns the address of the current owner."
      },
      "renounceOwnership()": {
        "details": "Leaves the contract without owner. It will not be possible to call `onlyOwner` functions anymore. Can only be called by the current owner. NOTE: Renouncing ownership will leave the contract without an owner, thereby removing any functionality that is only available to the owner."
      },
      "transferOwnership(address)": {
        "details": "Transfers ownership of the contract to a new account (`newOwner`). Can only be called by the current owner."
      }
    },
    "version": 1
  },
  "userdoc": {
    "kind": "user",
    "methods": {},
    "version": 1
  },
  "storageLayout": {
    "storage": [
      {
        "astId": 7,
        "contract": "contracts/MockSwap.sol:MockSwap",
        "label": "_owner",
        "offset": 0,
        "slot": "0",
        "type": "t_address"
      },
      {
        "astId": 282,
        "contract": "contracts/MockSwap.sol:MockSwap",
        "label": "usdtToken",
        "offset": 0,
        "slot": "1",
        "type": "t_contract(IERC20)190"
      },
      {
        "astId": 284,
        "contract": "contracts/MockSwap.sol:MockSwap",
        "label": "conversionRate",
        "offset": 0,
        "slot": "2",
        "type": "t_uint256"
      },
      {
        "astId": 287,
        "contract": "contracts/MockSwap.sol:MockSwap",
        "label": "propertyManager",
        "offset": 0,
        "slot": "3",
        "type": "t_contract(ICompliancePropertyManager)255"
      },
      {
        "astId": 289,
        "contract": "contracts/MockSwap.sol:MockSwap",
        "label": "ruleKey",
        "offset": 0,
        "slot": "4",
        "type": "t_bytes32"
      }
    ],
    "types": {
      "t_address": {
        "encoding": "inplace",
        "label": "address",
        "numberOfBytes": "20"
      },
      "t_bytes32": {
        "encoding": "inplace",
        "label": "bytes32",
        "numberOfBytes": "32"
      },
      "t_contract(ICompliancePropertyManager)255": {
        "encoding": "inplace",
        "label": "contract ICompliancePropertyManager",
        "numberOfBytes": "20"
      },
      "t_contract(IERC20)190": {
        "encoding": "inplace",
        "label": "contract IERC20",
        "numberOfBytes": "20"
      },
      "t_uint256": {
        "encoding": "inplace",
        "label": "uint256",
        "numberOfBytes": "32"
      }
    }
  }
}